:020000040000FA
:0600000002011A02223D7C
:03002B0002297F28
:030033000229613E
:030053000222B3D3
:03006B000229382F
:10008300022093E5C754F84401F5C7790122000023
:100093000080FB120086B90003020104E479217891
:1000A30008B800028004F709D8FCE479297802B87B
:1000B30000028004F709D8FCE490028178A8791340
:1000C3008002F0A3D8FCD9FA781A90014A7A01BACF
:1000D30000028007E493A3F608DAF97A287B1590E7
:1000E300014B780879048015E493A3AD82AE838A2B
:1000F300828B83F0A3AA82AB838D828E83D8E9D9C6
:10010300E775822D7583B6740312012C7582917580
:100113008300740012012C75D00075813F7518811E
:10012300751902759F00020096C09FF59FE473D076
:100133009F22D083D082C09FE493C0E0740193C018
:10014300E0740293F59F2201FF0000B40000280031
:100153002800283075A000A000A000A0000008001F
:1001630008E001F000100010001000100010001053
:100173000050005000500010001000D00700000095
:100183000000000F0001000500307507001000019A
:100193000081FF00000000FFFFFF740692067A064D
:1001A300B606FF02020208025000A0000000E803A6
:1001B30002DF84010000CC8402D98401000083158E
:1001C30002D184010000BF0202D98401000084151A
:1001D30002CF84010000D50202D9840100008515F5
:1001E30002DD84010000D70202D9840100008615D4
:1001F30002E984080000D80202D9840100008715AF
:1002030002EF840100008815FF0100FF2002DF8454
:10021300010000C68402D984010000EC1502F184B8
:10022300000000000002D38403000006031700222D
:100233000D220D220D220D220D220D220D220D2243
:100243000D220D220D220D220DE00FF20FDA0F0207
:100253000202020202020202010D0000001001026A
:10026300DF84010000C98402D9840100002F160233
:10027300E784010000400702D98401000030160220
:100283000985010000848302D9840100003116022C
:10029300FD84010000768302D98401000032160236
:1002A300FB84010000BF8202D984010000331602DF
:1002B300F984010000E38202D984010000341602AC
:1002C300F784010000F58202D9840100003516028B
:1002D300F384010000D18202D984010000361602A2
:1002E300ED84010000688302D984010000371602FF
:1002F300EB84010000381601E8030577100AFFFFBD
:10030300FF00013075030201060000000000000039
:1003130000000000000000000000000000000000DA
:100323000000000000FFFF0600800CE803140953DF
:10033300696D706C65424C45506572697068657291
:10034300616C051250002003020A00020106030239
:10035300F0FF53696D706C6520424C452050657207
:100363006970686572616C781400007E140A4368D2
:100373006172616374657269737469632031000229
:10038300436861726163746572697374696320326F
:1003930000084368617261637465726973746963A9
:1003A300203300104368617261637465726973740A
:1003B3006963203400024368617261637465726922
:1003C3007374696320350002DF84010000C3840273
:1003D300D9840100004D170201850300001D150299
:1003E300D7840100004E1702D9840100005F170271
:1003F30003850100001E1502D78401000060170267
:10040300D98401000071170205850200001F15023F
:10041300D784010000721702D984010000831702F8
:100423000785000000201502D38403000021150274
:10043300D784010000841702D984010000951702B4
:10044300F584040000231502D784010000961712D7
:1004530001351A90031201352D90031201355E9078
:1004630003120135989003120135F19003120135FF
:10047300389103120135809103120135AF910312B4
:100483000135DE91031201351592031201355C9299
:1004930003120135759203120135CA920312013515
:1004A300E392031201353193031201356B93031267
:1004B300013524F70112013527F80112013560F8DF
:1004C3000112013583F80112013595F80112013546
:1004D300D3F8011201354FF90112013517FA011250
:1004E300013539FA01120135D0FA0112013522FB27
:1004F3000112013553FB0112013560FB0112013575
:10050300CAFB0112013521FC0112013524FC011241
:1005130001355DFC0112013560FC011201356AFCF5
:1005230001120135BEFC01120135FFFC0112013538
:1005330032FD011201356FFD0112013571FE011209
:10054300013515FF011201357EFF01120135BCFF94
:10055300011201353988031201356188031201350F
:100563008E8803120135C6880312013524890312CC
:100573000135708903120135D78903120135178AB2
:1005830003120135548A03120135828A031201359D
:100593002C8B03120135368B03120135438B031267
:1005A3000135768B03120135828B031201359A8B49
:1005B30003120135A48B031201355AB3031201351B
:1005C30068B30312013580B30312013597B30312E5
:1005D3000135C3A9011201356DAA0112013580ABA2
:1005E30001120135FCAB011201351AAD01120135BF
:1005F30056AD01120135F1AD01120135D5AE01122F
:100603000135A1AF011201352FB101120135A0B19E
:10061300011201355AB2011201354CB301120135F1
:100623008CB30112013540B40112013572B40112C9
:10063300013568B601120135AAB601120135C8B6F3
:10064300011201352EB701120135FDB70112013533
:10065300C1B801120135E0BA011201353FCE0212D1
:10066300013529CF02120135D4CF0212013525D02D
:1006730002120135D5D00212013546D102120135DD
:100683002BD2021201355FD20212013558D3021266
:10069300013595D30212013571D402120135B0D45C
:1006A30002120135CCD4021201351CA50312013507
:1006B300A0A503120135CBA503120135E5A603124C
:1006C3000135328C03120135488C03120135668CD7
:1006D30003120135778D03120135818D0312013524
:1006E300AC8E03120135A38F031201351090031250
:1006F30001352DD50212013563D6021201359AD682
:1007030002120135F1D60212013506D90212013562
:100713000D8501120135998501120135FD860112FE
:100723000135098701120135448701120135B38769
:1007330001120135BC8801120135C5890112013549
:100743008C8A01120135E98B01120135078C0112E4
:100753000135248C01120135D18C011201354E8DE6
:1007630001120135768D01120135409001120135D8
:100773004590011201355E9201120135AC920112CE
:1007830001351C93011201355A9301120135369438
:1007930001120135F694011201354295011201351A
:1007A300459501120135899501120135D195011243
:1007B3000135109601120135329601120135669604
:1007C30001120135C99601120135CDDA0212013544
:1007D300DBDA021201352EDB021201354DDB021288
:1007E300013592DB02120135D6DC0212013571DDCF
:1007F30002120135B5DD02120135DFDD02120135CA
:100803004EDE0212013594DE021201350BDF0212B5
:100813000135BCDF02120135B82900120135C829A0
:1008230000120135692A00120135C52A001201356B
:10083300822B001201359E2C00120135D02C0012A0
:100843000135FF2C00120135AC2E00120135233186
:10085300001201359333001201358534001201353E
:100863007E3500120135853700120135793A0012C1
:100873000135A83B00120135AC3D00120135BC3EE9
:10088300001201354B40001201353C410012013585
:100893008A4100120135F941001201351D4200124F
:1008A30001356E42001201350F4700120135104821
:1008B300001201357148001201359C4800120135C0
:1008C3006249001201350080031201350A800312C8
:1008D30001354F8003120135638003120135F38024
:1008E300031201352C81031201356781031201358F
:1008F300908103120135E48103120135F98103125A
:1009030001351B8203120135308203120135448203
:100913000312013559820312013593820312013503
:10092300BF82031201350883031201357A83031250
:100933000135BD8303120135E783031201351284A8
:10094300031201356FAF0312013598980212013576
:100953007B9902120135F69902120135319A02127E
:100963000135829B02120135109C02120135A29EB1
:1009730002120135549F0212013560A002120135A3
:10098300D3A1021201352CA202120135F7F602128D
:1009930001353AF702120135BEF70212013595FA15
:1009A30002120135A8A0031201355AA10312013521
:1009B30056A20312013595A203120135EFA20312C9
:1009C3000135EEA80312013551A903120135EEA931
:1009D3000312013523AA0312013553AA0312013569
:1009E3008EAA03120135AEAA03120135A2E4021244
:1009F30001352EE502120135EDE50212013505E759
:100A0300021201351FE902120135AE7200120135DF
:100A1300D37200120135A0730012013574740012F1
:100A23000135E17400120135217500120135BD75E0
:100A330000120135F17600120135CC770012013531
:100A43002B7800120135B778001201352579001291
:100A53000135B17900120135F77900120135697A50
:100A630000120135FB7A001201359C7B001201351F
:100A7300BC7B00120135047C001201354D7C001251
:100A83000135697C001201358F7C00120135097D27
:100A930000120135177D00120135A67D00120135C4
:100AA3000F7E0012013556E902120135DBE902120D
:100AB30001351DEA0212013501EB021201356EEB1D
:100AC30002120135B2EB02120135F6EB02120135C7
:100AD30023EC021201354BEC0212013583EC0212B6
:100AE3000135C1EC02120135E8EC0212013562ED69
:100AF30002120135ACED02120135EDBA01120135D6
:100B03008CBC01120135C4BE0112013518BF01129C
:100B1300013543BF011201351FC0011201354FC01A
:100B2300011201357EC00112013591C00112013558
:100B3300D2C001120135FFC0011201354DC10112AE
:100B4300013589C101120135CEC1011201351BC224
:100B53000112013595C201120135D6C401120135C6
:100B6300C0C601120135FCC6011201358BC8011242
:100B73000135D0C80112013543C90112013598C9A5
:100B8300011201359DC90112013527CA0112013530
:100B930046CB0112013557CB0112013595AC021238
:100BA30001350EAD02120135C8B202120135D3B3BD
:100BB300021201357CB5021201350AB60212013563
:100BC3009B5E001201351C5F00120135495F001264
:100BD3000135925F00120135936000120135EC601C
:100BE30000120135686200120135EA620012013514
:100BF3000563001201357663001201353364001278
:100C03000135F664001201358465001201353B6637
:100C1300001201354E6600120135E76600120135F8
:100C23007E6700120135A567001201350E680012B8
:100C33000135586800120135A668001201354B6969
:100C430000120135E96900120135766A0012013597
:100C5300E76A001201352E6B00120135866B001214
:100C63000135B86B00120135726C00120135796DD4
:100C730000120135C26D00120135DF6D001201351E
:100C8300FE6D00120135316F00120135E86F00125D
:100C930001350D700012013522700012013592707A
:100CA30000120135D37000120135F77100120135BE
:100CB300787200120135D5A20212013520A3021267
:100CC30001352CA30212013500A40212013517A429
:100CD3000212013554A40212013585A40212013512
:100CE300BDA40212013513A50212013529A5021272
:100CF300013565A50212013578A5021201359FA5BC
:100D030002120135D3A502120135F9A602120135EB
:100D130043A8021201353FA9021201355CAA02124F
:100D23000135E87F001201357ACB01120135B5CBCD
:100D33000112013507CF0112013563D001120135CC
:100D430022D10112013589D40112013573D5011263
:100D53000135BFD501120135D9D50112013516D69A
:100D63000112013521D60112013560D60112013578
:100D730069D60112013513D701120135EAD70112E1
:100D830001353ED8011201359BD8011201350DD929
:100D930001120135A19701120135009B01120135A2
:100DA300069B0112013537A2011201353EA601123D
:100DB3000135D393031201356994031201357F94EE
:100DC30003120135D894031201351C950312013522
:100DD300569503120135EE95031201355D96031204
:100DE30001356696031201357296031201358C960E
:100DF30003120135B69603120135CB960312013562
:100E03002D970312013554970312013547FB021244
:100E1300013554FB021201356EFB02120135A1FBB1
:100E230002120135DFFB0212013544FC02120135C7
:100E330059FC0212013564FC0212013571FC0212E5
:100E4300013588FC0212013596FC02120135A1FC22
:100E530002120135ADFC02120135BCFC0212013550
:100E6300C7FC02120135EAFC021201358EFD0212A3
:100E730001359EFD02120135B8FD02120135D5FD83
:100E830002120135F0FD0212013515FE0212013581
:100E930020FE0212013535FE0212013549FE02120F
:100EA3000135AAFE02120135B0FE02120135B6FE6B
:100EB30002120135BCFE02120135D4FE02120135C5
:100EC30007FF021201350580021201359C800212D0
:100ED30001353481021201352482021201355B820D
:100EE300021201356E8202120135DC8202120135D3
:100EF3007784021201359E84021201354085021265
:100F03000135758502120135868502120135FF858B
:100F1300021201352086021201353886021201358C
:100F2300908702120135998902120135E98B021269
:100F33000135EC8C021201353B8D021201355CDA6E
:100F43000112013559DB0112013544DC011201356F
:100F53004EDC0112013570DC011201357CDC01121B
:100F63000135CEDD01120135FDDD011201352DDF25
:100F7300011201356FDF011201359BE001120135CA
:100F830071E101120135C3E10112013522E20112BF
:100F9300013559E20112013594E2011201352FE6C0
:100FA3000112013548E601120135CAE60112013585
:100FB300D8E6011201352DE7011201353BE7011295
:100FC3000135A8E7011201351AE80112013560E87D
:100FD30001120135888D02120135AA8D02120135E5
:100FE300948F021201353993021201357C94021257
:100FF3000135569502120135327E00120135577EB6
:1010030000120135C87E0012013534B602120135D3
:101013003DB60212013546B60212013577B7021208
:10102300013596B902120135CCB90212013506BA5F
:10103300021201353CBA0212013576BA02120135A9
:10104300AABA02120135D6BA021201351FBB021227
:10105300013559BB02120135A1BB02120135F7BBA1
:10106300021201352CBC0212013587BC0212013574
:10107300C1BC0212013512BD0212013548BD021274
:10108300013582BD02120135B0BD02120135D3BD57
:1010930002120135DBB40312013507B50312013522
:1010A30062B5031201356CB5031201357CB5031229
:1010B3000135169B031201353D9B03120135679BD6
:1010C3000312013585B603120135CE4900120135ED
:1010D300364C00120135E94D00120135464E00121F
:1010E3000135434F00120135D34F001201355850DB
:1010F300001201357D500012013575530012013580
:10110300EB5300120135DC54001201351655001261
:101113000135565500120135FC5600120135515761
:10112300001201359E57001201350C58001201358B
:101133003358001201354D5800120135635900121E
:101143000135735900120135FF5A00120135215B35
:1011530000120135575B00120135055D00120135A0
:10116300445D00120135765E00120135ECED02128A
:10117300013544EE021201358CEF02120135FBEF0B
:1011830002120135AAF002120135C9F0021201352B
:101193001DF1021201355BF10212013527B403126E
:1011A300013538B403120135CFB6031201350EB73A
:1011B30003120135EAB7031201357DB2031201357B
:1011C3008DB203120135A2B20312013554B30312D7
:1011D300013583B00312013507B1031201356DB137
:1011E30003120135BCAA03120135E5AA0312013526
:1011F3004BAB031201356AAB03120135BEAB0312CD
:10120300013517AC0312013552AC0312013555AC4D
:10121300031201353A84031201355F840312013549
:101223007C8403120135998403120135BC840312B3
:101233000135E884031201350E8503120135D58586
:1012430003120135698603120135978603120135AE
:10125300CF8703120135E8FF02120135F8FF0212AE
:101263000135FBFF02120135F87F0012013514A787
:10127300031201358AA803120135EBA803120135C5
:10128300FDAD0312013526AE031201354FAE031235
:101293000135E8AE031201352AAF0312013561BEF1
:1012A300021201356BBE02120135ABBE02120135CB
:1012B300F4BE021201352EBF0212013584BF0212A1
:1012C3000135A3BF0212013528C20212013531C212
:1012D3000212013582C202120135ABC2021201357C
:1012E300C0C20212013530C302120135BEC302125D
:1012F300013502C4021201352AC402120135A9C400
:1013030002120135ECC40212013529C5021201355E
:101313003BC5021201355AC50212013563C50212DB
:1013230001352DC6021201355FAC03120135B0AC95
:101333000312013539AD031201359FAD0312013597
:10134300E49D031201350E9E03120135089F03121B
:101353000135379F03120135BD9F0312013586B155
:10136300031201351AA30312013550A303120135E9
:1013730089A303120135E2A40312013586B50312D2
:1013830001359CB503120135A6B503120135FCB531
:101393000312013589FF0212013559C602120135C4
:1013A30016C70212013551C70212013579C702125D
:1013B3000135DBC70212013527C80212013587C880
:1013C3000212013518C90212013514CA021201357D
:1013D300A1CB0212013524CC0212013588CC0212B2
:1013E30001359FCC0212013595CD02120135E1CDB5
:1013F3000212013576F2021201358BF20212013527
:101403003BF3021201357BF30212013594F302120E
:101413000135C7F30212013514F40212013548F401
:10142300021201358AF40212013591F602120135D6
:10143300E9E801120135A0EC0112013532EE011287
:10144300013589EE01120135A8EE0112013526EFAF
:1014530001120135B8F0011201359CF10112013579
:10146300ADF50112013581F601120135CEDF02120D
:10147300013501E202120135C3E20212013540E4F3
:1014830002120135829703120135EA9703120135DF
:10149300079803120135D2980312013525990312D7
:1014A3000135089A0312013518B70312013595B7B0
:1014B300031201355EB703120135C1B703120135BB
:1014C300E2FF01E066701008A3E066700A08A3E07B
:1014D30066700408A3E06622C3E7960809E7960846
:1014E30009E7960809E79622C3E09608A3E0960861
:1014F300A3E09608A3E09622C008C3E096F5080887
:10150300A3E096420808A3E096420808A3E09645A4
:10151300087001D3D00822080808EAC0E0EBC0E055
:1015230086F0E7A4FA180986F0E7A42AFA180986D0
:10153300F0E7A42AFA180986F0E7A42AFA1986F034
:10154300E7A4FBE5F02AFA190886F0E7A42BFBE5EC
:10155300F03AFA190886F0E7A42BFBE5F03AFA18FB
:10156300180986F0E7A4C5F02BFBE43AFA1908E75B
:10157300C5F0C6A426F6E5F03BFBE43AFA1886F07C
:10158300E7A4F6E5F00826F6E43B08F6E43A08F6A5
:10159300D0E0FBD0E0FA22E4CFC0E0E4CEC0E0E448
:1015A300CDC0E0E4CCC0E075F020E626F608E633D3
:1015B300F608E633F608E633F6181818EC33FCEDB4
:1015C30033FDEE33FEEF33FFC3EC9709ED9709EEDE
:1015D3009709EF97191919400FFFEC97FC09ED973D
:1015E300FD09EE97FE191906D5F0BFECF709EDF7E3
:1015F30009EEF709EFF7191919D0E0FCD0E0FDD097
:10160300E0FED0E0FF226016080808C6C313C61820
:10161300C613C618C613C618C613C6D5E0EA227089
:1016230009080808226016181818C6C333C608C666
:1016330033C608C633C608C633C6D5E0EA22E62752
:10164300F60809E637F60809E637F60809E637F635
:1016530022E026F608A3E036F608A3E036F608A350
:10166300E036F622E026F008A3E036F008A3E036E1
:10167300F008A3E036F022C3E697F60809E697F6EA
:101683000809E697F60809E697F622C3E096F008FC
:10169300A3E096F008A3E096F008A3E096F022E01A
:1016A30056F608A3E056F608A3E056F608A3E0565C
:1016B300F622E056F008A3E056F008A3E056F0083F
:1016C300A3E056F022E0F608A3E0F608A3E0F6084C
:1016D300A3E0F622E6F008A3E6F008A3E6F008A3E9
:1016E300E6F022E0FAA3E0FBA3E0FCA3E0FD22E0A6
:1016F300F8A3E0F9A3E0FAA3E0FB22E8F0A3E9F002
:10170300A3EAF0A3EBF022CAC0E0E6F0A308DAFAFA
:10171300D0E0FA22CAC0E0E0A3C582CCC582C5836B
:10172300CDC583F0A3C582CCC582C583CDC583DA7D
:10173300E6D0E0CA22C3E498F8E499F91217798055
:1017430026C3E49AFAE49BFBE920E7E9121779E45C
:1017530098F8E499F922C3E498F8E499F91217790F
:10176300E498F8E499F9C3E49AFAE49BFB22EB20AA
:10177300E7CFE920E7E0B90010BB0008E88AF0846E
:10178300F8AAF022E4FBC8FA22EB70227B10C833DC
:10179300C8C933C9335007C39AC3DBF280069A50D2
:1017A300012ADBEAC833F4C8C933F4C9FA2275F055
:1017B30008E4C833C8C933C933C99AC99B5004C99B
:1017C3002AC93BD5F0ECFBC833F4C8E4C9FA22605C
:1017D3000D08C6A2E713C618C613C6D5E0F32260E8
:1017E3000C08C6C313C618C613C6D5E0F42270048A
:1017F30022600D18C6C333C608C633C6D5E0F41835
:1018030022251810AF08F518400C15198008F51893
:1018130040021519D2AF2200C0D0251810AF08F529
:1018230018500C05198008F51850020519D2AFD0CD
:10183300D0222518F58210AF08F518400C15198031
:1018430008F51840021519D2AF851983222518F51A
:1018530082E43519F583222518F8E43519F9222590
:1018630018FAE43519FB222518FCE43519FD22E4A6
:10187300732518C582C0E0E51934FFC583C0E0E5D0
:1018830018C3958224F810AF0885831985821880C0
:1018930008858319858218D2AFCEF0A3E520F0A383
:1018A3007808E608F0A3DEFAEFF0A3E58124FAF85E
:1018B300E608F0A3E608F0A3E608F0A30808E608A4
:1018C300F0A3E608F0A315811581D0E0FED0E0F87F
:1018D300158115811581E8C0E0EEC0E0222518C509
:1018E30082C0E0E51934FFC583C0E0E518C39582E3
:1018F30024F910AF08858319858218800885831918
:10190300858218D2AFCEF0A3E520F0A37808E608CD
:10191300F0A3DEFAEFF0A3E58124FBF8E608F0A3D9
:10192300E608F0A30808E608F0A3E608F0A315818B
:101933001581D0E0FED0E0F815811581E8C0E0EE16
:10194300C0E022851983851882E0A3FEE0A3F52079
:101953007808E0A3F608DFFAE0A3FFE0A3C0E0E025
:10196300A3C0E0E0A3C0E0E0A3C0E0E0A3C0E010B8
:10197300AF088582188583198008858218858319A5
:10198300D2AFD083D082020132851983851882E0D9
:10199300A3FEE0A3F5207808E0A3F608DFFAE0A3AE
:1019A300FFE0A3C0E0E0A3C0E0E0A3C0E0E0A3C089
:1019B300E010AF0885821885831980088582188511
:1019C3008319D2AFD083D08222C0D02518C582C05C
:1019D300E0E51934FFC583C0E0E518C3958224F31D
:1019E30010AF08858319858218800885831985823D
:1019F30018D2AFC8F0A3E9F0A3EAF0A3EBF0A37900
:101A030008E709F0A3D8FAECF0A3EDF0A3EEF0A3F6
:101A1300EFF0A3D0E0F0A3D0E0F0A3D0E0F0A3E593
:101A230020F0A3E5F0F0A322851983851882E0C096
:101A3300E0A3E0F9A3E0FAA3E0FBA37808E0F6084B
:101A4300A3DFFAE0FCA3E0FDA3E0FEA3E0FFA3E035
:101A5300C0E0A3E0C0E0A3E0F5D0A3E0F520A3E05D
:101A6300A3F5F010AF088583198582188008858354
:101A730019858218D2AFD082D083D0E0F8D0E0327B
:101A830074048006740280027401C0E0F404121826
:101A930035D0E012170A227404800474028000CC4B
:101AA300C0E0EDC0E0E518C39CCCAD1950011D109A
:101AB300AF068C188D1980068C188D19D2AF1217AA
:101AC30017D0E0FDD0E0FC22D083D082E9C0E0E46F
:101AD30093A3C386F0C5F095F0F908E493A386F0C9
:101AE300C5F095F0700BE493A3C3994005E9048016
:101AF30002A3E475F002A42582F582E5F03583F5AF
:101B030083D0E0F9E493A3C0E0E493C0E022D08360
:101B1300D082ECC0E0EDC0E0E493A3FCE493A3FD2A
:101B2300ED4C600D121B5DEC24FFFCED34FFFD80DA
:101B3300EFE493A3FCE493A3FDED4C600D121B9C17
:101B4300EC24FFFCED34FFFD80EFD0E0FDD0E0FCA2
:101B5300E493A3C0E0E493C0E022C0E0C3E493961F
:101B6300087401939618400FE49366700808740193
:101B730093661870007019A3A3C3E49396087401C5
:101B8300939618A3A3400DD0E0D0E0D0E0021B4D04
:101B9300A3A3A3A3A3A3D0E022C0E0C0F088F0E4F2
:101BA300936670080874019366187000A8F0A3A3E5
:101BB300700BD0F0D0E0D0E0D0E0021B4DA3A3D057
:041BC300F0D0E0225C
:101BC80074F61218E0EAFEEBFF8C088D09EE243457
:101BD800F8E43FF9E8FCE9FDEE2435121EDBFAEEE5
:101BE8002437121EDBF88508F0A4C885F00A850999
:101BF800F0A4250AF9EA28F8E439F97A257B0012D5
:101C08001779EA8C828D83F0FA131313541FF8EEB8
:101C180028F8E43FF9E8245DF582E439F583E0C06B
:101C2800E074075AF8D0E0B800028004C313D8FC67
:101C3800A2E0EE50082434F582E43F8018243612DE
:101C48001EDBF5F0EA84A8F0EE28F8E43FF9E82472
:101C580038F582E439F583E0F97F0302198C74F7CB
:101C68001218E0EAFEEBFFEE2434121EDBC0E0EEB1
:101C78002435F582E43FF583D0E0F08E828F83A38C
:101C8800A3A3A3A3A3A3C082C0838E828F83A3A38D
:101C9800A3A3A3E0F8A3E0F9D083D082E0C398F52A
:101CA80008A3E099F509EE247F121EDB6401703E5B
:101CB800EE2480F582E43FF583C082C0838E828F54
:101CC80083A3A3A3A3A3E0240108A3E03400F9D0CD
:101CD80083D082E0687003A3E06970127CB17D0450
:101CE800120C62EE247FF582E43FF583E4F0AC0841
:101CF800AD09EEFAEFFB121BC8E9F912292A7F0297
:101D080002198CC082C083851882851983E0F8A3E4
:101D1800E0F9C3EA9CEB9D5010C3EC98ED99401B89
:101D2800C3EA98EB995014800EC3EA98EB994007E0
:101D3800C3EC98ED994004790180027900D083D0F2
:101D48008222EAC39CFAEB9DFB2274EF1218E09002
:101D58000376E064086005E06407702A9061C8E0D3
:101D680060249003A4E0F4601DE0F875F00BA4C8AB
:101D7800AAF02AF974A628FE740339FF8E828F838D
:101D8800A3A3A3E07003021E60906060E0C0E0EED1
:101D98002468F582E43FF583D0E0F0750C21750DD9
:101DA80005750800750900E5D914F50AE5D9540345
:101DB800F50E60127403650E6043E50A600AEE24AE
:101DC80067121EDB7002807590051CE06401601FBD
:101DD800121ED860047A0480027A00E50AC39AFACF
:101DE80095E0FB120B0C8A088B09EA45097005126D
:101DF8000EA88064121ED870048A0C8B0DE50A6048
:101E080012850C82850D83F50BE5D9F0A3150BE53A
:101E18000B70F6121ED8604474FC250AF50A780C7B
:101E2800121A87AC0AA90EEEFAEFFB120D1C740207
:101E380012181AE97026AA08AB0912132E793D8EDA
:101E4800828F83A3A3A3A3E0FA7B0012096EEEFAA4
:101E5800EFFB120C86120D2E7900806F7403650E4D
:101E68006051850A107511007810121A87AC0CADF4
:101E78000DAA08AB09120CE0740212181AEE2468B5
:101E8800121EDB64807004747F8001E0F50C780C0E
:101E9800121A8BE50EF50C780C121A8BA90AAC08ED
:101EA800AD099003A4E0FA7B0012094474021218E9
:101EB8001A8013900376E06408600BAC0CAD0DEE4D
:101EC800FAEFFB120DA6120EB479017F0A02198CE3
:101ED800EE2483F582E43FF583E02274F21218E0E1
:101EE80074FC121804EAFEEBFF8909A2AFE433F58B
:101EF80008C2AF021FADE0601B780C121A87AC0B4A
:101F0800A90EEEFAEFFB120D16740212181A7404D9
:101F1800250BF50B7401250BF5D9850ED9E50B605A
:101F280018F50A850C82850D83E0F5D9A385820C06
:101F380085830D150AE50A70EA75E195EE2463F8C4
:101F4800E43FF97A007B00A2AFE433F50BC2AF8817
:101F5800828983E0FCA3E0FDEC4D603A88828983A6
:101F6800E0FAA3E0FB8A828B83E0FCA3E0FD888291
:101F78008983ECF0A3EDF08A828B83E4F0A3F088E8
:101F8800828983E0FCA3E0FDEC4D700A8882898396
:101F9800A3A3E4F0A3F0E50BA2E092AF12132E90F6
:101FA80004B8E004F0EE2463121EDBF8A3E0F9E8BD
:101FB800496064EE2463121EDB2402F8A3E03400B7
:101FC800F988828983E5822402F50CE43583F50DCE
:101FD800E0F50BA3E0F50EEE2462121EDB6401703F
:101FE800369061D0E0F8121ED860047C0480027C30
:101FF800007480C398FA95E0FBE50B2CF8E43400F4
:10200800F9E82402F8500109C3EA98EB99A2D265CD
:10201800D0334003021EFE9004B8E0604D9004B92E
:10202800E0F89004B8E0C398500C74026509703A5F
:102038009004BAE060348E828F83A3A3A3A3E085C3
:1020480018828519831220827402121850E812200F
:10205800829004B7E028F0740212186AAA18AB1923
:1020680079011209989004B8E4F0E508A2E092AF6B
:10207800740412181A7F0702198CF0A3E4F0900474
:10208800B8E0F8228521878522C622C0E074EB12C9
:1020980019CCA2AFE433F508C2AF759B00906182FA
:1020A800E0A2E05030E591A2E0502A7591FE74015B
:1020B80065217021122226120DF4122214121A9A86
:1020C8001226D4740412181AE964017005790112F1
:1020D8000E3C121D52906182E0A2E5505DE591A28E
:1020E800E550577591DF900376E064076005E0647A
:1020F80008702F12222674016521703E120DF41209
:102108002214121A9A1226D4740412181AE96401B5
:1021180070057901120E3C7901EEFAEFFB121EE30D
:102128008018E0640D7013900398E004F064287040
:1021380002E4F07A00E0F9120EBA906182E0A2E6B9
:1021480040030221E9E591A2E640030221E97591E5
:10215800BF900376E064057008120DDC120DE8806C
:1021680003120DE2752100120E48E9900377F07909
:1021780000120E3C120BD27A017B00900375E0F935
:102188001212FE907803E064427056900520E01425
:10219800F0704EC2AF1221A000782AD0E0F618D015
:1021A800E0F6E59F5407F87005750DFF8003750D7F
:1021B8007FC4C0E07829E6F50A08E6550DF50B74EA
:1021C8000B780A1217E2D0E0250AF8906270E0A2B4
:1021D800E740F8E8C333906272F0906270E0D2E0B2
:1021E800F0906181E0A2E35009E5E9A2E3500375AC
:1021F800E9F7A3E0A2E75009E591A2E7500375913A
:102208007FE508A2E092AF7F08021A2B8E828F83A7
:10221800E0F8A3E0C82416F582E438F58322900399
:10222800A4E0F875F00BA4C8AAF02AF974A628FE51
:10223800740339FF22C0E0C0D0C082C0839061839C
:10224800E0A2E05009E5BFA2E0500375BFFEE0A29E
:10225800E15009E5BFA2E1500375BFFDE0A2E250DD
:1022680009E5BFA2E2500375BFFBE0A2E35009E510
:10227800BFA2E3500375BFF7E0A2E45009E5BFA28F
:10228800E4500375BFEFE0A2E55009E5BFA2E550B1
:102298000375BFDFE0A2E65009E5BFA2E65003756B
:1022A800BFBFD083D082D0D0D0E032C0E074F21269
:1022B80019CCE5A7A2E6500FE5A1A2E6500953A75D
:1022C800BF75A1BF122307E5A7A2E5500CE5A1A29F
:1022D800E5500653A7DF75A1DFE5A7A2E15009E5A0
:1022E800A1A2E1500375A1FDE5A7A2E2500CE5A16A
:1022F800A2E2500653A7FB75A1FB7F01021A2B74BB
:10230800F71218E0752101900376E0640670151243
:102318000D528A828B83A3A3A3A3A3A3E0FAA3E00D
:10232800FB120DCAA2AFE433FED2AF90037CE06487
:102338000170187A207B00900375E0F91214187A5E
:10234800207B00900375E0F9121304906182E0D2BB
:10235800E6F090051DE0602185C622801690037B7B
:10236800E064017008E5C654F84405F5C653BEFCA0
:1023780012208C7401652160E4EEA2E092AF7F0226
:1023880002198C008E238F2485822885832785183F
:1023980082851983E0CEA3E0CF852882852783EB49
:1023A800C9EAC8EDCBECCA75F010C3E833C8E93305
:1023B800C9EA33CAEB33CBC3EA9EF526EB9FF52572
:1023C800B35004AB25AA26EC33CCED33CDD5F0DAE7
:1023D800AE23AF242274E91218E074FA121804EA42
:1023E800FEEBFF8C0A8D0B120E00EAF8EBF9ECFA03
:1023F800EDFB8E828F831216FE900376E024F7C3DE
:1024080094055006751401022544120D528A088B52
:1024180009EA45097003022541EEFCEFFDAA18AB55
:1024280019120DFA850882850983A3A3780C121660
:10243800C8908447780C1216A2851882851983786B
:10244800101216C890844778101216A2780C7910CA
:102458001214DB501F780C791012167A9084637866
:102468000C1214FB4047850C14850D15850E168536
:102478000F178045908463851014851115851216F1
:102488008513177814790C12167A78141214FB50E5
:102498001C751400751500751600751701781479E8
:1024A8001012167A7814790C121641800C751401E2
:1024B8007515007516007517007409781412162220
:1024C8009084AF780C1216C87814790C12159A8576
:1024D8000882850983A3A3A3A3A3A31225621217C5
:1024E80079880C890DE4F50EF50F7814790C12161D
:1024F800417404121850122562121779E8FA8A0CEE
:10250800E4F50D7814790C1214DB50077814790C63
:1025180012167A900376E06408600AE064066005A3
:10252800E06405702090845F78141214FB501690B4
:10253800845B7814121654800C7514007515007598
:102548001600751700850A82850B8378141216D732
:10255800740612181A7F1002198CE0F8A3E0F97AB1
:10256800D07B032274F71218E0120E1290051BE0BC
:1025780064017010906245E4F0A3F053F4F343FE55
:102588000C5390F3120DB8E5C654B84441F5C6E5AE
:102598009E5447644170F8906185740FF090051956
:1025A800E0F47002A3E0604E90051AE06008146041
:1025B8001B14602E8040750801750900900519E00C
:1025C80078081217F1E508F45280802A7508017519
:1025D8000900900519E078081217F1E508F45290FF
:1025E8008014750801750900900519E0780812171C
:1025F800F1E508F452A079007F0202198C74F712F1
:1026080018E0E9FEEAFF120E1274016E700C7A806F
:102618007B00900375E0F91212FE9029B0E493F460
:102628006008E493F9120BC6800953C6B8E59E54B6
:102638004770FA120DBE90051BE064017003120B7F
:10264800E4900519E0F47002A3E0604B90051AE0ED
:10265800600814601A14602C803D75080175090023
:10266800900519E078081217F1E50842808028756E
:102678000801750900900519E078081217F1E508B6
:1026880042908013750801750900900519E07808D3
:102698001217F1E50842A0120D528A088B09A80802
:1026A800A909E8496014E5E170FCE82414F582E41E
:1026B80039F583E0F46003E0F5E174016F700A7A9C
:1026C80001900375E0F912138802260074F11218BC
:1026D800E08A088B098C0A8D0B90844778081216BB
:1026E800A2740F121850780C1216C8908447780CF0
:1026F8001216A27808790C1214DB908463501078B3
:1027080008790C12167A78081214FB4014800E7897
:102718000C790812167A780C1214FB50047901808F
:102728000279007F0802198C74ED1218E08A088B70
:10273800098C0A8D0B90844778081216A27413121C
:102748001850780C1216C8908447780C1216A27884
:102758000C79081214DB40117808790C12167AAA41
:1027680008AB09AC0AAD0B80227510007511007515
:1027780012007513017810790C12167A78107908FE
:10278800121641AA10AB11AC12AD137F0C02198CB2
:1027980090844778081216C88A828B8378081216A4
:1027A800B57F0402198C74F51218E08C828D837839
:1027B800081216C88A828B83780812168E12280689
:1027C800C3E09CF0A3E09D1227F8402290847B7818
:1027D800081216C88A828B8378081216678A828B39
:1027E80083A3A3A3A3E02420F0A3E0344EF080A0A9
:1027F800F088828983C3E09420A3E0944E22EA24DF
:1028080004F8E43BF98C828D83A3A3A3A3E0FCA383
:10281800E0FD888289832274F51218E0E9FE9004AD
:10282800D3E0FAA3E0FBEE29F8E433F9744928F57C
:1028380082748339F583E02AF508A3E03BF509782B
:1028480008121A879084BF1216E612238C7402129B
:10285800181A8A088B098C0A8D0B741078081216BE
:1028680009AA08AB097F0402198C74F11218E08ACE
:102878000C8B0D8C0E8D0F7411121850121A9E7439
:1028880011121850E02401F508A3E03400F509E41A
:10289800F50AF50B780C790812151A908457780800
:1028A8001216C8780C790812151AAA0CAB0DAC0EC2
:1028B800AD0F12238C740212181A8B09EA450960AD
:1028C800047A0180027A00EC2AFCE43DFD741312BC
:1028D8001850E0F8A3E0F9E8FEE9FFECF8EDF97A22
:1028E800717B0212177988088909E4F50AF50B8EBD
:1028F800828F8378081216D7ECF8EDF97A717B028B
:102908001217798A088B09740578081217F18E82D4
:102918008F83A3A3A3A3E508F0A3E509F07F08022A
:10292800198CC082C083E9906000F0D083D08222E5
:10293800C0E074F21219CCA2AFE433FED2AFE5893D
:10294800A2E15003121202758900C2C5751A00EE81
:10295800A2E092AF7F01021A2BC0E074F21219CCE8
:10296800A2AFE433FED2AFE58BA2E050031212020D
:10297800758B00C2E880D5C0E0C0D0E8C0E0E9C0EF
:10298800E0A9A8D2AFC2C7751A00E9A2E7E433F8F4
:10299800E9A2E792AFD0E0F9D0E0F8D0D0D0E032A9
:0629A800C2AF0200002294
:1029B000FFFFFFFFFFFFFFFFC082C083E99015EB21
:1029C000F0D083D08202013274F6121874E99002BA
:1029D000E8F0900348E0F5087509007402780812E1
:1029E00017F1AA08AB091213709002E912337B9019
:1029F00002E9123768606F900348E075F003A4FAAB
:102A0000ABF012137090030612337B90030612375B
:102A100068700B9002E912373912137680489003E0
:102A2000061246CD7AFF7BFF12116C7A0080198A5C
:102A300008750900740278081217F112417574FFC5
:102A4000122B7BE4F0A3F00A900348E0F8EAC39865
:102A500040DD79051208309002E8E0F912071C7A8F
:102A6000BA7B08120AAC02421874F41218748A086D
:102A70008B09EB548060479002E8E0F91212E68A75
:102A80000A8B0BAE0AAF0BEE4F602A8E828F83E06B
:102A900064B0701A120842E960148E828F83A3A377
:102AA000A3A3E0F9EE2405FAE43FFB120812EEFAC4
:102AB000EFFB1212D4AA08E5096480FB80047A00B7
:102AC0007B00022CCB74F212187474FB121804EA07
:102AD000FEEBFFEE4F60457403121850EEF0A3EFCB
:102AE000F0851882851983ECF0A3EDF074021218BA
:102AF00050E9F0AA18AB19120716E9F508707574B9
:102B000013121850E0F50AA3E0F50BE50A450B6037
:102B1000638E828F83123104EE4F70057508028038
:102B2000537A067B001213708A0C8B0DA80CA90D2A
:102B3000E8497005750813803B88828983E4122B6D
:102B40007BEEF0A3EF122C97E50AF0A3E50BF090D3
:102B500002EC122C909002EC6017E0FCA3E08003E2
:102B6000EAFCEBFD8C828D83122C9070F38C828DAD
:102B700083123D90A908740502494DF0A31246AF97
:102B8000A32274F21218748908890C750D0074035D
:102B9000780C1217F1850C0A850D0B9002EBF09062
:102BA00002E9123B9B122C8E602E12137679008064
:102BB0001D890C750D007402780C1217F19002E952
:102BC0001240348882F583A3A3E4F0A3F0099003B4
:102BD00048E0F8E9C39840D9900348E0FA850AF044
:102BE000A4CAA8F0850BF0A428FB1213708A0C8BE2
:102BF0000DAE0CAF0DEE4F7003022C84900348E035
:102C0000FC850AF0A4CCA8F0850BF0A428FD79007F
:102C10001212BC7C0080318D0C750D007403780C91
:102C20001217F18A828B83122C8988828983E4F0BF
:102C3000122C96A3A3F0A3F00DEDC3950840D8EE97
:102C4000250AFEEF350BFF0C900348E0F8ECC39823
:102C500050288C0C750D007402780C1217F190023C
:102C6000E9122C89E82402500109FAE9FB8A828BD7
:102C700083EEF0A3EFF07D0080BFE5089002EBF05B
:102C8000790080027913024950124038F922A3A337
:102C900012373DEA4B22A31246AFA3A3A32274F43A
:102CA0001218747900EAA2E0501F750806750984AD
:102CB0007808121A8779107C047D007AED7B151252
:102CC000082A740212181AE9F980007F04021946D2
:102CD000C082C0839002EC123768601C88828983AE
:102CE000A3A3E06A7003A3E06B8882898370E8A3E2
:102CF000A3A3A312373980047A007B000229C17490
:102D0000F212187474FD121804EAFEEBFF851882A3
:102D1000851983E4F0A3F074021218507401F012C4
:102D2000376570141209E61213709002EF12337BAC
:102D30001237657003022E9112347BEE2404F50ADB
:102D4000E43FF50B850A82F583E024FE603C24FC19
:102D5000607424FE607E24FE7003022DE124FE7068
:102D600003022DEE24FE7003022DFB24FE700302ED
:102D70002E0824FE7003022E1524FC7003022E364A
:102D800024FE7003022E4E022E8A1209E69002F1F2
:102D9000EAF0A3EB122E9D12045EE96003022E8A74
:102DA0009002F1121A9E8E828F83A3A3A3A3A31273
:102DB00046CD8508828509831237391207FA7402D5
:102DC00012181A022E8AAC18AD19EEFAEFFB12088F
:102DD00048022E59AC18AD19EEFAEFFB12084E80DE
:102DE00078AC18AD19EEFAEFFB120854806BAC18F2
:102DF000AD19EEFAEFFB12085A805EAC18AD19EE71
:102E0000FAEFFB1208608051AC18AD19EEFAEFFB37
:102E10001208668044740212185A880C890D780CC6
:102E2000121A87740212186AEEFAEFFB12086C7419
:102E30000212181A8023AC18AD19EEFAEFFB120833
:102E400072E9F870167402121850E4F0803CAC1865
:102E5000AD19EEFAEFFB120878E9F8E8602C8E82E3
:102E60008F83A3E064146022850A82850B83E0903F
:102E700002F1F08518828519831237399002F21217
:102E8000337BE8A3122E9D120458EEFAEFFB1207D3
:102E9000D07402121850E0F9740302494DF07CF12D
:102EA0007D0285088285098312373D2274E8121855
:102EB0007474FA1218047404121850ECF0A3EDF0B4
:102EC0008A128B13EA2405F50EE43513F50FEA2474
:102ED00002F510E43513F511851082F583123739A8
:102EE00012054E8A0A8B0B7508007C037D00790061
:102EF0007AF17B021212BCE50E2402F516E4350FBE
:102F0000F517740212185A880C890D780C121A875A
:102F1000850E82850F83A3A3A3A3E0F50C750D0096
:102F2000780C121A87E50E2405F50CE4350FF50D23
:102F3000780C121A87851682851783123A40120779
:102F400034740612181A8A0C8B0DE50C450D7003AB
:102F50000230CD8020851882851983E0888289839C
:102F6000F00508851882851983A3E0C0E012310EB0
:102F7000D0E0F00508E50A24FBFAE50B34FFFBC3BB
:102F8000E5089AE49B40030230CD7E007F00851265
:102F900082851383A3A3A3A3E0F5097809121A8BF2
:102FA000E4F514F5157814121A877514EE751502E8
:102FB0007814121A879002EF121A9E740912185090
:102FC000121A9EE50A24F9F9AC0CAD0D8510828524
:102FD00011831237391208A2740912181AE9600312
:102FE00002306E850E82850F83A3A3A3A3A3A3A3A0
:102FF000E0F89002EEE0687075E0F5148E15781434
:10300000121A871246CA850E82850F83A3A3A3A333
:10301000A3A3A3A31237391212B6740212181AE925
:10302000604C9002F2123768703BE4F51478141289
:103030001A877CFF7DFF79078510828511831237FF
:103040003912080C740212181A12376E7017850E96
:1030500082850F8312486774041218501241281297
:103060003A71023101850C82850D83123104A81852
:10307000A919881489157814121A87740412185023
:10308000121A9E85168285178312337112074074B7
:103090000412181A8A0C8B0DEE4F7003022F4A127D
:1030A000310EEE123119123A27EF123119F8A3E05E
:1030B0003400F9E50C450D6003022F5588828983A1
:1030C00074FFF0050812310E74FFF00508E5086082
:1030D0001A1313543F12338112046AE960099002F3
:1030E000F212373912132E79008016850E82850F61
:1030F000831248677404121850124128123D9079C7
:103100000A0239FAA3A3A3A3E0FEA3E0FF22A808C2
:103110009002F2E028123A2722F00508089002F205
:10312000E0282274E812187474FA12180474021257
:10313000185012337B7404121850ECF0A3EDF074A5
:1031400002121850E02405123A10E0F50CA3E0F545
:103150000D7402121850E02402F510A3E03400F5BB
:1031600011851082F58312373912054E75080075E6
:103170000900EA24FCFEEB34FFFF8008050CE50C97
:103180007002050DA808C3EE98EF940050030233B7
:103190002DA818A919880E890F780E121A87851480
:1031A00082851583A3A3A3A31246D1121A87E5141F
:1031B0002405F50EE43515F50F780E121A878514DF
:1031C0008285158312336F120734740612181A8A17
:1031D0000E8B0FEA450F700302332DEA2404F51617
:1031E000E4350FF517851682F583E0F50CA3E0F5BD
:1031F0000D8518828519831246CD8A828B83A3A3FD
:10320000A3E0F9851082851183123739120722E96C
:10321000F509600302332D7402121850123A37F583
:10322000097809121A8BE4F512F5137812121A872D
:103230007512EE7513027812121A879002EF121AA5
:103240009E7407121850121A9EEEF9AC0EAD0F853F
:1032500010828511831237391208A2740912181AC4
:10326000E9F509600302332DE508703FE4F50EF53A
:103270000F780E121A877CFF7DFF790985108285F1
:10328000118312373912080C740212181A123A5D9F
:10329000700D740412185012336479110233619066
:1032A00002EEE024029002F2F080149002F2E0FAC2
:1032B0009002EEE0790024025001096A497072A878
:1032C000089002EEE0FAE82AFAE43400FBEE9AEF06
:1032D0009B405A851682851783E0C0E09002F31266
:1032E0003113D0E0F00508851682851783A3E0C06E
:1032F000E0089002F3123113D0E0F005089002EEDE
:103300001246D1121A871246CAA808123A0412129B
:10331000A4740212181A9002EEE02508F50874FF52
:10332000650C700474FF650D600302317CE5086074
:103330001F9002F2E0F5F0E5088412338112047068
:10334000E960099002F312373912132E79008011C7
:10335000E509700375090A7404121850123364A940
:10336000090239FA123B9FE50CF0A3E50DF022A308
:10337000A312495CAA0CAB0D22A3A3EAF0A3EBF0C5
:10338000229002F1F07CF17D02851082851183127A
:10339000373D2274EC12187474FC121804123EA00B
:1033A000740212186A12373312073A8A0C8B0DEA2C
:1033B000450D700302346B12347BA818A9198810CC
:1033C00089117810121A877CFF7DFF790B8508829E
:1033D00085098312373912080C740212181A123533
:1033E00071700C850A82850B83123A6E0234788ED6
:1033F000828F83A3A3A3A3E0F5127812121A8BE4A1
:10340000F512F5137812121A877512F175130278F6
:1034100012121A877810121A877409121850121A89
:103420009E7409121850E0F9AC0CAD0D8508828528
:1034300009831237391208A2740912181AE9FE70AA
:10344000157CF17D028508828509831237391204C3
:1034500076E97009802074166E70027E009002F288
:1034600012373912132EEE7004800B7E01850A820A
:10347000850B83123D8DEEF9023DA2EE2402F50884
:10348000E43FF5092274EC12187474FC121804EA73
:10349000FEEBFF8C0E8D0FEE2405F508E43FF509D9
:1034A000740212186A850882850983123739120757
:1034B0003A8A0C8B0DEA450D7003023561EE240249
:1034C000F50AE43FF50BA818A9198810891178109E
:1034D000121A877CFF7DFF790D12373312080C74A6
:1034E0000212181A123571700B8508828509831231
:1034F0003A6E807A8E828F83A3A3A3A3E0F512781D
:1035000012121A8B850882850983A3A3121A9E754D
:1035100012F17513027812121A877810121A877432
:1035200009121850121A9E7409121850E0F9123735
:103530002F1208A2740912181AE9FE700F7CF17D8F
:103540000212373312047CE97009802074166E7001
:10355000027E009002F212373912132EEE700480B0
:103560000B7E01850882850983123D8DEEF9023DAF
:10357000A2123778F510A3E0F511EA45112274E89C
:1035800012187474FE1218048A168B178C148D1579
:10359000EA2405F50CE43517F50DEA2402F50EE4EE
:1035A0003517F50F850E82F58312373912054E8ACD
:1035B000088B09750B007C037D0079007AF17B0292
:1035C0001212BC750A00E50814F5100424FFF50872
:1035D000E50934FFF50980549002F1E0FA9002EE1B
:1035E000E0F8EA28F8E43400F9E50898E50999508C
:1035F0000D9002F1E0F8E510C3989002EEF0E0F5CE
:10360000127513007812121A871246CA9002F2E05D
:103610002AFAA3E03400FB1212A4740212181A90C2
:1036200002EEE0F89002F1E028F0050A850C8285B0
:103630000D83A3A312404440030237149002F1E02B
:10364000C39508E495094003023714AE0AEE2EFE36
:10365000E433FF123753AC18AD191246E5E439FBD9
:1036600012073A8A128B13AC12AD13EC4D701B7516
:103670000B01123743123D919002F2122C9060031D
:1036800012132EA90B74020239FC8516828517834A
:10369000A3A3A3A3E0F50B780B121A8BE4F512F5A4
:1036A000137812121A877512EE7513027812121A15
:1036B000879002EF121A9E7407121850121A9EA9D0
:1036C00010850E82850F831237391208A2740912F1
:1036D000181AE9F50B709B9002F21237686003022A
:1036E00035D8E4F512F5137812121A877CFF7DFFA6
:1036F000790F850E82850F8312373912080C7402F8
:1037000012181A12376E60030235D8123743123A74
:10371000720236857CF17D02850E82850F83123719
:1037200039120482E960030236787900023685ACEA
:103730000CAD0D850A82850B8312373D22E0FAA37A
:10374000E0FB22123753E0FAA3E0F9EA8514828500
:10375000158322850C82850D83E02EF8A3E03FF9C6
:1037600088828983229002EF12486BE8492212373F
:1037700078F8A3E0F9E849229002F2EAF0A3EBF02E
:103780009002F2E02274E812187474FA12180474A9
:103790000412185012337B8C168D177404121850B3
:1037A000E02405F50EA3E03400F50F740412185060
:1037B000E02402123A1012373912054E8A0A8B0B96
:1037C0007F007E00A818A919880889097808121AAC
:1037D00087850E82850F83A3A3A3A3E0F5088E0936
:1037E0007808121A87E50E2405F508E4350FF50967
:1037F0007808121A87850E82850F83A3A3123A4098
:10380000120734740612181A8A0C8B0D8029123A8A
:1038100031F00F123A31F00F9002EE123D7C121A85
:10382000871246CAEFF8123A041212A47402121850
:103830001A9002EEE02FFFE50C450D70030238C030
:10384000851882851983123EB2A3A3A3E0F98514DB
:1038500082851583123739120722E9FEE50C24040C
:10386000F510E4350DF511EE705074041218501275
:103870003A37F5087808121A8BE4F508F509780844
:10388000121A877508EE7509027808121A879002D5
:10389000EF121A9E7407121850121A9EE50A24FAA3
:1038A000F9AC0CAD0D8514828515831237391208D9
:1038B000A2740912181AE9FE6039123A4D123D90AD
:1038C000EF70030239E79002F2E0F5F0EF84900226
:1038D000F1F07CF17D02851482851583123739124F
:1038E0000488E960099002F312373912132E790027
:1038F0000239FA8F08EF703BE4F512F513781212D3
:103900001A877CFF7DFF7911851482851583123714
:103910003912080C740212181A123A5D7009123A20
:103920004D123A710239FA9002EEE024049002F24C
:10393000F080359002EEE0F89002F2E0FAE824041C
:10394000FCE43400FDEC6A4D60030238C6E50A244D
:10395000FAFAE50B34FFFBE50828F8E43400F9EA4D
:1039600098EB9950030238C6851082851183E0C018
:10397000E09002F3E02FF8A3E034008882F583D0D2
:10398000E0F00F851082851183A3E0C0E0123A1E9B
:10399000D0E0F00F740212185A88088909780812CA
:1039A0001A877402121850121A9E850E82850F8390
:1039B00012336F120740740412181A8A0C8B0DEA26
:1039C000450D700302380E7402121850E0C0E01268
:1039D0003A1ED0E0F00F7402121850A3E0C0E012BB
:1039E0003A1ED0E0023816EE70027E0A850E8285FD
:1039F0000F83123A53123D90EEF9740612181A7F93
:103A0000100219469002F3E028FAA3E03400FB22EA
:103A1000F514A3E03400F515851482F58322123ADB
:103A200022229002F3E02FFAA3E034008A82F58389
:103A300022123A2274FF22123B9FA3A3A3A3E022E7
:103A400012495C850E82850F8312373D22851082D4
:103A500085118312486B851682851783229002F3A5
:103A6000EAF0A3EBF09002F312486BE84922123D12
:103A700096E8F0A3E9F079112274EA12187474FE42
:103A80001218048A088B098C128D13EA2405FEE4AF
:103A90003509FFAC18AD198E828F831237391207A2
:103AA0003A8A0C8B0DEE2406F50EE43FF50FEA453D
:103AB0000D7003023B71E5082402F50AE43509F5AF
:103AC0000B8A828B83A3A3A3E0A2E55028851882EA
:103AD0008519831237391208968A108B11EA45111D
:103AE0006020791212372F85108285118312187287
:103AF000E9F50C707F850E82850F83E060097952AD
:103B00008011750C0E806D850882850983A3A3A39F
:103B1000A3E0F9E4F508F5097808121A878E828F78
:103B200083A3A3E0F5087808121A878E828F83A3F7
:103B3000A3A3121A9E8E828F831246CD12373312A0
:103B400008A8740612181AE9F50C7011850E828502
:103B50000F83E0702D12373312048E8025741665A2
:103B60000C7011750C007418121850123B9BE480F5
:103B700010750C01124863851282851383E8F0A347
:103B8000E9F0850E82850F83E0600479008002A948
:103B90000C740212181A7F0E021946123B9F22E083
:103BA000F8A3E0F58388822274EC12187474F7127B
:103BB00018048A0A8B0B8C108D11EA2405FEE4355B
:103BC0000BFF750C00AC18AD198E828F831237393C
:103BD00012073A8A088B09EA45097003023D67E536
:103BE0000A2402F50A5002050B8A828B83A3A3A341
:103BF000E0A2E5502F851882851983123739120803
:103C0000968A0C8B0DEA450D604F7912AC08AD0910
:103C1000123733850C82850D83121872E9F50C601A
:103C200003023D6A850A82850B83E0F508A3E0F56F
:103C300009AA08FB12088AEA4B70197AFF7BFF1267
:103C4000088AEA4B7003023D5D8A828B83E508F0A7
:103C5000A3E509F07508008008750C0E023D6A05A1
:103C6000089002EBE0F8E508C3984003023D5D854B
:103C7000080E750F007403780E1217F18A828B8379
:103C8000A3A3E0250EF8A3E0350F12413170D08ECA
:103C9000828F83123D8512337B8E828F83A3A31282
:103CA0003D85123379EE2404F508E43FF5098508D3
:103CB00082F583E088828983A3A3A3A3F0A3E4F021
:103CC000EE2405F50EE43FF50F850E82F583123DD7
:103CD00085A3A3A3A3123379751207751300781275
:103CE000121A87EEFCEFFD74041218621212A4740B
:103CF0000212181AE4F5127812121A8785088285C2
:103D00000983E0FC7D00791712373312080C740226
:103D100012181A740712185012337B7407121850B5
:103D2000E0FA4B603D850882850983123D7C121ABA
:103D300087850E82850F831246CD1212A47402125B
:103D4000181A740212186A123733120494E96026A2
:103D5000740712185012373912132E8019750C0976
:103D60008008750C118003750C0112486385108260
:103D7000851183123D90A90C74098028E0F508751F
:103D8000090078082212373D8882898322123D96E5
:103D9000E8F0A3E9F022E0F8A3E0F9850E82850FB0
:103DA0008322740412181A7F0C02194674EC12183C
:103DB00074123EA0751000EE2402F50CE43FF50DE0
:103DC000850C82F58312373912088A8A088B09EA32
:103DD00045097003023E84850A82850B83E06401F5
:103DE0006003023E79AC08AD09AA0AAB0B12087E4B
:103DF000E9606E850882850983123106EE2406F596
:103E00000AE43FF50B8E828F83A3A3121A9E8E8243
:103E10008F83A3A3A3A3121A9E850A82850B831204
:103E20001A9E79188E828F83123EB2123739120889
:103E3000A8740612181AE9F8741668700B850A82BD
:103E4000850B83E4F0A38014E860128E828F8312C6
:103E50003739850E82850F83EAF0A3EBF088108056
:103E600018780E121A87AC08AD09EEFAEFFB1208AB
:103E700084740212181AE9F510AA08AB0912089006
:103E8000E510700E850C82850D8312373912049A65
:103E90008009741665107003751000A910023DA703
:103EA000EAFEEBFF8C0E8D0FEE2405F50AE43FF5DC
:103EB0000B2212495C850C82850D832274EA12184C
:103EC000747508007509007E007F00750A00EC24F7
:103ED00002F510E43DF5118035EC65087003ED65E1
:103EE000096003023F7188828983A3A3E06A70039B
:103EF000A3E06B707C88828983A3A3A3A312486785
:103F0000EE28FEEF39FFEA28FAEB39FB050A1240EA
:103F100041503A850A0C750D007403780C1217F1A4
:103F2000851082851183124034124131601FE508EB
:103F3000450970A58C088D0988828983123104880F
:103F4000828983A3A3E02EFAA3E03F80BEE50AC3E3
:103F50009402500302402F750800750900EE4F606F
:103F600010EEFAEFFB1213288A0E8B0FEA450F7042
:103F7000057900024031750B00024004850B0C7579
:103F80000D007403780C1217F1851082851183E0FF
:103F9000250CF50CA3E0350DF50DE50C2406F51404
:103FA000E4350DF515851482F5831241366042E53E
:103FB0000C2404F512E4350DF513851282F58312F5
:103FC0001A9EE50E2508FAE50F3509FB1212A474B6
:103FD0000212181A851282851383E02508F508A3BA
:103FE000E03509F5098514828515831237391213D6
:103FF0002EE50B600D7C087D007900AA0CAB0D123C
:1040000012BC050BE50BC3950A5003023F7C8510DB
:104010008285118312486788828983A3A3A3A3A3FF
:10402000A3E50EF0A3E50F122C97EEF0A3EFF079C5
:1040300001023B9612403822E0250CF8A3E0350D32
:10404000229002EBE0F8E50AC3982274F01218748B
:104050008A0E8B0F8C0A8D0B750D00750C0080502D
:104060007916EE2406F508E43FF5098E828F83A3C6
:10407000A3121A9E8E828F83A3A3A3A3121A9E85D6
:104080000882850983121A9E850E82850F83A3A359
:104090001237391208A8740612181AE9F50D7416A9
:1040A000650D706C850882850983E4F0A3F0050C2A
:1040B0009002EBE0F8E50CC3985066AA0C8A0875EC
:1040C0000900740378081217F1850A82850B83A30F
:1040D000A3124180E8FEE9FF8E828F831241366091
:1040E00040EA2401F508E43400F5099002EBE065AC
:1040F000087002E509601488828983A3A3A3A3A39F
:10410000A3A3A312376860030240607918024062DB
:10411000E9609B1248637410121850124128123D36
:1041200090A90D7F08021946E0FAA3E0F5838A8280
:1041300022F98882898312495CEC4D2274F61218A8
:10414000747C0080010C900348E0F8ECC398501E8A
:104150008C08750900740278081217F1124175E095
:104160006A7003A3E06B70DDE8FAE9FB80047A0073
:104170007B000242189002E91241808882898322E2
:10418000E02508F8A3E03509F92274F21218748AC0
:10419000088B09750A0080278E828F83A3A3A3A3AF
:1041A000122C8E600312132E7C087D007900EEFA2B
:1041B000EFFB1212BC8E828F83E4F0A3F0050A128B
:1041C00040415027850A0C750D007403780C1217B6
:1041D000F1850882850983A3A3E0250CFEA3E035C1
:1041E0000DFF8E828F8312376870AD850882850936
:1041F0008374FFF0A3F002495074F6121874120889
:104200003C8A828B83E582458370067A007B00803E
:1042100007A3A3A3A31237397F0202194674F4122D
:10422000187489088C828D83E06402703C12480601
:10423000FEA3E0F9EEF8740268700374296970292E
:10424000750A02750B00780A121A8774101218503A
:10425000121A9E7410121850121A9EA90812117E7A
:10426000740612181AE9F980027901022CCB74E85D
:1042700012187474FB121804E9851882851983F0EA
:104280008A168B17ECFEEDFF7510008E828F83A3CC
:10429000A3A3E0A2E4502D741D1218501237391256
:1042A00008968A828B83E582458370030246A5794E
:1042B0000AEEFCEFFDAA16AB17121872E9F51060B2
:1042C000030246A8741F121850E0F508A3E0F50990
:1042D0007421121850E0F50AA3E0F50B74231218AC
:1042E00050E0F50EA3E0F50F8E828F83E06402604C
:1042F00003024646A3124867850882850983A38581
:104300008212858313EE2406F50CE43FF50D8882B6
:1043100089831246E5F514E439F5157814121B115A
:104320000100002801284843070002280D44032803
:104330007B4300293C45012967450229084503299B
:104340003C450429E0454646E50E450F600302461C
:1043500041850C82850D83124867E8FAE9FB8A8261
:104360008B83E0850A82850B831246F0121A878AB6
:10437000828B83A3E0FCA3E00245CAE50E450F60F3
:1043800003024641850A82850B837401F01246DAE6
:10439000850882850983F07C007D008E828F83A34F
:1043A000A3A3A3E02401FAA3E03400FB12073AEA36
:1043B0004B60408A828B83E02402F8850A82850B59
:1043C00083E028F0EA2404F8E43BF988828983E05A
:1043D0008512828513831246FE1246F0121A878ACE
:1043E000828B83A31246CDE5082403FAE43509FB4A
:1043F0000245CF850A82850B83E02404F07C047D8E
:10440000007900AA12AB131212BC0246A8E50E45B1
:104410000F60030246411246DAFEA3E0FF850A82DE
:10442000850B837404F0EE850882850983F0EF859F
:104430001282851383F0740312186AEEFAEFFB12EE
:10444000073A8A0C8B0DEA450D70030244EB8A8211
:104450008B83A3A3123104740112185A880E890F9A
:10446000780E121A877405121850121A9E7CFF7D5E
:10447000FF120740740412181A8B0FEA450F7033AD
:10448000850C82850D831246D1121A87850C828590
:104490000D83A3121A9E7C027D007ADB7B841205B9
:1044A0003C740412181AE9700A740112185074FF4F
:1044B000F0A3F08E828F83E064027039750C027570
:1044C0000D00780C121A878E828F83A31246CDE5D9
:1044D000082404FAE43509FB1212A4740212181A13
:1044E000850A82850B83E02402800974011218502A
:1044F000EEF0A3EFF074011218501246BF740112CF
:1045000018501246B602463BE50E450F60030246C0
:1045100041850C82850D83124955AA16AB171211DD
:1045200084850A82850B837402F08508828509835D
:10453000EAF0851282851383EB02463EE50E450FB5
:1045400060030246411246DAF8A3E0F9850A828543
:104550000B837402F0E8850882850983F0E98512EF
:104560008285138302463E850C82850D831237397E
:1045700012129EEAFAF8C3950EE4950F405CE865C6
:104580000E450F70047A008021851882851983E01A
:10459000FCE50E2CFCE4350FFDC3EC98ED940050C7
:1045A00003E08005E50ECAC39AFAEA850A82850B04
:1045B00083F08A0A750B00780A121A87850C8285A7
:1045C0000D83E0250EFCA3E0350FFDAA08AB091210
:1045D00012A4740212181A0246A87510070246A8FF
:1045E000E50E450F705B850C82850D83124867854B
:1045F0000A82850B837407F0888289831246B7127A
:1046000046AFE0851282851383F0E82402FAE4398C
:10461000FB8A828B831246BF8A828B831246B6A3A3
:10462000A3122C961246C4F0E82405F8500109881C
:104630008289831246C4A31246FEA3A3A3A3F080DB
:104640006775100B8062741D1218501237391208EA
:104650003C8A828B83E5824583604A124867880CD6
:10466000890DE8450D603E7425121850E0F510786C
:1046700010121A8B780E121A87780A121A87780885
:10468000121A877407121850E0F9EEFCEFFDAA1613
:10469000AB17850C82850D83121872740712181AD5
:1046A000E9F510800375100EA91074050239FCF0AD
:1046B00088828983A322A3E0850882850983221248
:1046C0004705F022124705A3A3229002EF12495C8E
:1046D00022E0F50E750F00780E22850C82850D8381
:1046E000123B9FE022E0FAA3E0F8E4C8F9EA2822AE
:1046F000F08A828B83E0F50A750B00780A22124655
:10470000AF12470522E0850882850983A3A322749E
:10471000EE12187474FE1218048A088B09ECFEED70
:10472000FF890AAC18AD19EEFAEFFB12073A8A0CB2
:104730008B0DEA450D70030247F7851882851983B2
:1047400012373912083C8A828B83E58245837003D5
:104750000247F2A3A3124867880E890FE8450F703D
:10476000030247F27414121850E0F510A3E0F5119B
:10477000E50AF50B780B121A8B7419121850121ADD
:104780009E7810121A87741B121850E0F9AC0CAD09
:104790000DAA08AB09850E82850F83121872740565
:1047A00012181AE9F50B705274FE650A604C850CFC
:1047B00082850D83E064027041124806FAA3E0F995
:1047C000EAF87402687003742969702E8510828576
:1047D00011831246E5F50CE439F50D780C121A87B1
:1047E000EEFCEFFDAA08AB091208C0740212181AF9
:1047F0008008750B0E8003750B01A90B740212184B
:104800001A7F0A021946A312486B88828983E02224
:1048100074F612187474FE121804740C12185012E4
:104820004867E8851882851983F07401121850E9E9
:10483000F0E4F508F5097808121A87750802780877
:10484000121A87740412185A880889097808121AEB
:104850008779FE1208A8740612181A740212181A20
:104860000242188E828F8312486B22E0F8A3E0F98F
:104870002274F7121874EAFEEBFF890890030612FF
:1048800046CD121184EA5402600BA908EEFAEFFB40
:1048900012072E800279017F0102194674F2121864
:1048A0007474FE121804EAFEEBFF890A7401650AAB
:1048B00060147402650A600302494B7901120ACA46
:1048C000E9600302494BEEFAEFFB12088AEA4B60FB
:1048D00003120890A818A919880889097808121ADB
:1048E000877508027509007808121A877508D3754C
:1048F00009847808121A877CFF7DFF7A017B0012F9
:104900000734740612181A8038850882850983A333
:10491000A3A3A3A3A3124955EEFAEFFB12116CE473
:10492000F50CF50D780C121A877402121850121A31
:104930009E7CFF7DFFAA08AB091207407404121881
:104940001A8A088B09E508450970BE740212181A04
:104950007F06021946123B9F12495C22E0FCA3E04D
:10496000FD2274F41218748A088B09ECFEEDFF9096
:1049700015EBE0F4604B7A097B001212CEEA4B6033
:10498000408A828B8374B1F0A3E41249C4F08A8216
:104990008B83A3A3E508F0A3E5091249C4A3EEF0B5
:1049A000A3EFF0740C1218501248678A828B83A30D
:1049B000A3A3A3A3A3A3123D909015EBE0F91212B9
:1049C000DA022CCBF08A828B83A3A3A3A32274F0F8
:1049D00012187474FA1218048909ECFEEDFF7508B8
:1049E000008A0A8B0B780A121ACB000410F44B11C0
:1049F0004A2F4A494A614A7F4A974ABA4AD24AE606
:104A00004A104B8B4B9C4BB34BCE4BF44BF44B2689
:104A10004B740165096003024BEF8E828F83E0F8CF
:104A2000C394034003024BEFE89016D7024BCB74BC
:104A30000265096003024BEF8E828F83124C309027
:104A400016D8E8F0A3E9024BCB74016509600302B4
:104A50004BEF124C214003024BEFE8900749024B09
:104A6000CB740165096003024BEF8E828F83E0F8FF
:104A7000C394054003024BEFE890074A024BCB7406
:104A80000165096003024BEF124C214003024BEF1A
:104A9000E890074B024BCB741065096003024BEFA3
:104AA000750A10750B00780A121A877A4C7B071268
:104AB00012A4740212181A024C15740165096003DD
:104AC000024BEF124C214003024BEFE890075C02CF
:104AD0004BCB740165096003024BEF8E828F83E03C
:104AE0009016DB024BCB740465096003024BEF8E1A
:104AF000828F83780C1216C89084BF780C1214FB36
:104B00005003024BEF90075E780C1216D7024C153B
:104B1000E96003024BEF1206D4E9700512113080F0
:104B2000559007F18061740765096003024BEF75CA
:104B30000A06750B00780A121A878E828F83A3AC3F
:104B400082AD8374021218621212AA740212181A29
:104B50007C007D00AA18AB198E828F83E0F91210B9
:104B6000DCE9FEC3940A4003024C121206D4E97039
:104B70000CEEF912113679501213EE806D74F22E8C
:104B8000F582E43407F5837401804074016509708F
:104B90005E124C215059E890075D802F7401650921
:104BA000704D8E828F83E0F8C3940A5042E89016CD
:104BB000DA80187401650970368E828F83E0F8748C
:104BC000F928C3940A5028E89016DCF08047740155
:104BD0006509701B9007F0E0F88E828F83E09007E4
:104BE000F0F0E87030E06401702B1211248026751B
:104BF00008188021C3EA9427EB94005015740265CD
:104C000009700F8E828F831256F6120554E9F5084B
:104C10008003750802A908740612181A7F08021981
:104C2000468E828F83E0F8C3940222A908024FCEF9
:104C3000E0F8A3E0F92274F012187474B1121804A9
:104C40008C0C8D0D908418742012186A740612173B
:104C500017742012186A1210DCE9F508745F121834
:104C600050E0F50AE9C3940A4003024DB475F0061A
:104C7000E9A4F509744112186A7A0E74202509F91D
:104C80001213E8E97009744D121850E0FF80027F9A
:104C9000009016D7E064027005750E018003750E52
:104CA000007408650A70047422800274212509F5D5
:104CB0000F7C1B7D00790074261218621212BCEF63
:104CC000A2E0E433FE742612186A7A1BA90F1213AD
:104CD000E8E970257440121850E024F9C3940A5092
:104CE00018780E121A8B742712186AEEF9AA0CABF8
:104CF0000D1205F6740112181A7C147D00790074E7
:104D00000C1218621212BC740C12186A7A107424F5
:104D10002509F91213E8E970307C1079FF740C1240
:104D20001862121322E97021741C121850AC82AD63
:104D3000837A0474252509F91213E8740C12186A91
:104D4000EEF9AA0CAB0D1205DEAC18AD197A0C7495
:104D5000702508F91213E8E97049AA18AB19121165
:104D60000C7E00EE75F003A4F8A9F0851882851971
:104D700083E58228F8E58312550F1256F0601D88EE
:104D8000828983A3A3E0F5087509007808121A87C1
:104D9000AA0CAB0D1208AE740212181A0EEEC394D0
:104DA0000440C0EFA2E1500C900748E0F9AA0CAB18
:104DB0000D1208B47404650A70289016D7E06402D6
:104DC00070207A0090075CE060027A01900749E069
:104DD0006004780480027800E84AF9AA0CAB0D124E
:104DE00006AA7900744F024C1974F712187412064F
:104DF000D4E9704F9007F1E0640170151211309002
:104E000007F1E4F07C0AFDF97AF27B071212BC800C
:104E10002A750800A80874F228FEE43407FF8E8281
:104E20008F83E06401700BA9081211368E828F8384
:104E3000E4F00508E508C3940A40D979501213EE4E
:104E400012112402582E74F012187474F0121804FF
:104E5000EAFEEBFF8C088D09750A0AE9600C146004
:104E60000914603B14607D024F3C12111EE9F50AE3
:104E7000C3940A4003024F3CE50845097003024F02
:104E80003C750C06750D00780C121A87EEFCEFFDD0
:104E9000AA08AB091212A4740212181A024F3C7528
:104EA0000C00750E06750F00780E121A87EEFCEFD7
:104EB000FDE50C75F00EA4F8A9F0746A28FA7407E1
:104EC00039FB1212B6740212181AE9700B050CE5C0
:104ED0000CC3940A506680CA850C0AE50AC3940A7A
:104EE000505A8049750C00AC18AD197A1075F0064F
:104EF000E50CA42423F91213E8E9701C7C1079FF57
:104F0000AA18AB19121322E9700EEEFCEFFDAA18D5
:104F1000AB191205BAE9600B050CE50CC3940A50F5
:104F20001B80C4850C0AE50AC3940A500FE50845A6
:104F3000096009AA08AB09A90A121118A90A741074
:104F4000024C1974F4121874890975081574FF6AF3
:104F5000700374FF6B70277E00AC097A027B00EE51
:104F6000F91210FAE960037508000EEEC3940A40C6
:104F7000E8E50960537A487B11120AEE804A120A6A
:104F8000BE8A0A8B0BAE0AAF0BEE4F60387C007DF9
:104F900000EE2405FAE43FFB8E828F83A3A3A3A334
:104FA000E0F91210DCE9F9C3940A500CAC097A025A
:104FB0007B001210FA750800E509600CEEFAEFFBB1
:104FC0001211488003750814024C2B12181A7F0422
:104FD00002194674F2121874ECFEEDFF7508157490
:104FE0000E121850E0F50AA3E0F50B74FF6A700387
:104FF00074FF6B7021750900AC0AAD0BEEFAEFFB84
:10500000A909121100E960037508000509E509C343
:10501000940A503F80E2120ABE8A828B83E5824561
:1050200083602D7C007D00E5822405FAE43583FB56
:10503000A3A3A3A3E0F91210DCE9F9C3940A501367
:10504000AC0AAD0BEEFAEFFB1211007508008003FD
:10505000750814A9080254D7C082C083900762EA79
:10506000F0A3EBF0900748E0FC7D007A267B00126D
:105070000554900748E0F9120818025B5074EF12CB
:10508000187474EC121804EAFEEBFFEE240CF50C15
:10509000E43FF50DEE2405F50EE43FF50FEE24098F
:1050A000F50AE43FF50BEE2403F508E43FF5098E1D
:1050B000828F83A3A3E024FA700302535324FD706C
:1050C0000302527514700302515314601024FD70D2
:1050D000030252491470030252AC025359125E6B20
:1050E0006049E0F5838882124C30880E890FE845CC
:1050F0000F6038850C82850D83E0F50C780C121A50
:105100008BEE240BF582E43FF583E0F9850A828576
:105110000B831256F60A0A0AAB09850E82850F83A5
:10512000121872740112181A025359850A82850BDB
:1051300083121A9E90075E1216E61205F074021290
:10514000181AE970030253597901850A82850B8385
:105150000253237510008E828F83A385820A858374
:105160000BE06003025216850E82850F83E0A2E0F9
:1051700040030252169007FC125E6E600302521644
:105180007C0E7D007900AA18AB191212BC850C8226
:10519000850D83125B1BEA4B6010750C06750D00C4
:1051A000780C121A87EA2410801B125B15120ABEB3
:1051B000EA4B7003025359750C06750D00780C12FA
:1051C0001A87EA2405FCE43BFD74021218621212ED
:1051D000A4740212181A850E82850F83E0A2E25091
:1051E00004D2F08002C2F0A2F0E433F8740C12187A
:1051F00050E048F0EEFCEFFDAA18AB19121112E9CD
:1052000070117A027B00900748E0F91212FE7900D3
:1052100002535B751015125E6B7003025359125ADC
:10522000DF7003025359850A82850B83E0FC790104
:10523000125365121872E5107003025359FC79037A
:10524000125B15125AC502534E125E6B7003025365
:1052500059125AF2124C30890BE8450B7003025375
:10526000598E828F83A3E0FC7902125B15888285B8
:105270000B8302534E7C007D00EE2404FAE43FFBD6
:10528000850882850983E0F91210DCE9F8C3940AE5
:105290004003025359EE240AFCE43FFD7A0475F002
:1052A00006E8A42425F91213E2025359125B159063
:1052B000075DE060079016DAE0F9806A9016D7E0A3
:1052C000700479058060120ABE8A0C8B0DA80CA9A7
:1052D0000DE8497003025359E82404F50CE439F54C
:1052E0000D8E828F83A3A3A3A3A3A3A3E0A2E05068
:1052F0003A850C82850D83E0FE6030850A82850B3D
:1053000083A3E054027024740E12186AE82405FA8C
:10531000E439FBEEF91210DCE9701079038508829C
:10532000850983125B1B1205EA802EAC0EAD0F853A
:105330000C82850D83E0F9125B15121154125E6B1D
:105340006017125ADF60127C007900125365121840
:10535000728006125B151210D67901741412181A95
:105360007F09021946850882850983E0FAA3E0FBDC
:105370008E828F832274F512187474F2121804EA64
:10538000FE8C0A75F006E9A42420F508AC18AD19C6
:105390007A0EF91213E8E970467C0679FFAA18AB79
:1053A00019121322E97038740C121850125B1BEAA0
:1053B000F8E50A6005EEC8488004EEF4C858F8EA3B
:1053C000687001EB6015740C121850E8F0A3E4F05B
:1053D000AC18AD197A0EA9081213E279018002798E
:1053E00000740E12181A7F0302194674F212187410
:1053F00074E6121804890A8A088B09ECFEEDFF7422
:105400000C12186A7A0E75F006E9A42420F912131A
:10541000E8E960030254D07C0679FF740C1218622C
:10542000121322E960030254D07470250AF50BAC04
:1054300018AD197A0CF91213E8E960030254CCAAEA
:1054400018AB1912110CE5084509701D7C0C790088
:10545000AA18AB19121322E970727C0C7D00790036
:10546000AA18AB191212BC8051AC18AD19AA08AB1E
:10547000091211068A0C8B0DA80CA90DE84970229F
:10548000EE4F604CAC18AD197A007B00121106EAA1
:10549000F8EBF9EA4B603988828983E508F0A3E5E7
:1054A00009F012554BFAEE6A7001EF601FEEF04FF3
:1054B000700888828983E4F0A3F0AA18AB1912114E
:1054C0000CAC18AD197A0CA90B1213E27901800209
:1054D0007900741A12181A7F0602194674F7121806
:1054E000747E00EE75F003A4F8A9F0EC28F8ED1234
:1054F000550FE06A7003A3E06B7006E8FAE9FB80E1
:105500000B0EEEC3940440DB7A007B0002582E3968
:10551000F9888289832274F71218747C00EC75F084
:1055200003A4F8A9F0EA28F8EB12550FE0F4FEA363
:10553000E0F4FF88828983EEF0A3EFF012554BF47C
:10554000F00CECC3940440D502582EE82402F582F6
:10555000E439F583E02274F412187474F412180418
:10556000EAFEEBFF8C088D099007FC125E6E704F0F
:10557000EE4F70030256CFEC450970030256CF126E
:10558000111EE99016DDF0C3940A4033750B007CC0
:105590000679FFE50B75F00EA4FAABF074642AFAF5
:1055A00074073BFB121322E96003025630050BE53A
:1055B0000BC3940A40D9750A0AE50A9016DDF090EB
:1055C00016DDE0C3940A40030256CF75F006E0A44E
:1055D000FB9007FC125E6E705CEEFCEFFD7A0E74C1
:1055E000202BF91213E27C0C7D0079FFAA18AB196D
:1055F0001212BCAC18AD197A0C9016DDE02470F9CB
:105600001213E2750A0E750B00780A121A87EEFC67
:10561000EFFD9016DDE012578E1212A474021218DC
:105620001A9007FCE508F0A3E509F079000256D1CD
:10563000850B0A8084E0C824061256EA60197A1B9A
:1056400074212BF91213E21256D62406F582E4389F
:10565000F583E4F0A380D31256D6240A1256EA60EA
:10566000107A1B74222BF91213E21256D6240A80E8
:10567000DB1256D6240C1256EA60107A1074232BD3
:10568000F91213E21256D6240C80C11256DF1256BC
:10569000EA60307A1074242BF91213E21256DFF507
:1056A00082E438F583E02410FCA3E03400FD7A04A2
:1056B00075F0069016DDE0A42425F91213E21256C7
:1056C000DF80899007F0E0600312115A12114E79C1
:1056D00001740C024FCB9007FCE0F8A3E0C82290C5
:1056E00007FCE0F8A3E0C8240822F582E438F5833B
:1056F0001256F6EC4D22E0FCA3E0FD2274F41218E1
:105700007474F2121804EAFEEBFFE9C3940A500421
:10571000EE4F700479028034AC18AD197A0E75F032
:1057200006E9A42420F91213E8E9F508701C750AAB
:1057300006750B00780A121A87740212186AEEFABC
:10574000EFFB1212A4740212181AA908740E024F69
:10575000CB74F4121874EAFEEBFF750800750A06A4
:10576000750B00780A121A87EEFCEFFDE508125758
:105770008E1212B6740212181AE96004A908800B7E
:105780000508E508C3940A40D4790A024FCE75F0A3
:105790000EA4F8A9F0746428FA740739FB2274F790
:1057A000121874750800E50875F00EA4F8A9F074D5
:1057B0006428FE740739FFEEFCEFFD7A0E75F006E3
:1057C000E508A42420F91213E8E960297C067D008D
:1057D00079FFEEFAEFFB1212BC7C067D0079FFEE3A
:1057E0002CFAE43FFB1212BCEE240CF582E43FF5E8
:1057F00083E4F0A3F00508E508C3940A40A89007E5
:10580000F0E0600312115A12114E802274F7121840
:10581000747E007F007C06EF12578E74FFF912131E
:1058200022E970010E0FEFC3940A40E9EEF97F01FF
:1058300002194674F71218747E00EEF9121136E957
:10584000F90EEEC3940A5003E960EF80E174F3129D
:10585000187474CB12180489089016DDE06508707E
:105860001B7A017B00900748E0F91213047A027B4F
:1058700000900748E0F912130412116675F006E56E
:1058800008A4FF74202FFE742712186A7A0EEEF90E
:105890001213E8E960030259557C0679FF74271258
:1058A0001862121322E960030259557C0E7D0079BB
:1058B000FF74271218621212BC7C1B7D0079FF74E2
:1058C0000C1218621212BC7C0C7D0079FFAA18AB76
:1058D000191212BC742712186A7A0EEEF91213E22A
:1058E000E9FE740C12186A7A1B74212FF91213E264
:1058F000E9F509740C12186A7A1B74222FF9121335
:10590000E2E9F50A740C12186A7A1074232FF9125E
:1059100013E2E9F50B740C12186A7A1074242FF94B
:105920001213E2E9F50C740C12186A7A0474252F2C
:10593000F91213E2E9FFAC18AD197A0C747025085E
:10594000F91213E2E9F8E509450A450B450C4F4801
:10595000CE4EFE80027E00EEF9743512181A7F05D5
:1059600002194674F7121874E9900748F0121124CE
:1059700002582E74F4121874EAFEEBFF5480700380
:10598000025A36900748E0F91212E68A088B09EAB3
:1059900045097003025A2F7A01E5082404F8E4351A
:1059A00009F9880A890B8508828B83E024506040BE
:1059B00014600624E16067806C88828983E07068E7
:1059C0008508828B83A3A3A3A3A3A3A3121A9E85F6
:1059D00008828B83A3A3A3A3A31256F68508828B08
:1059E00083A3A3125B1B1210E8740212181A8038EA
:1059F00088828983E0641E700F79008508828B831A
:105A0000A3A3125B1B1210E2850A82850B83E0F9C7
:105A1000E5082405FAE43509FB120812800AAA08F1
:105A20001210F4E9FAEA6007AA08AB091212D4EEE0
:105A3000FAEF6480802AEE54026028EE6402FE7C55
:105A4000007D007A007B00121112E960047A018067
:105A5000027A027B00900748E0F91212FEEEFAEF9C
:105A6000FB805FEEA2E0504C6401F508EFF50912EF
:105A70005AD3121160E9602A125E6B6020125ADF5D
:105A8000601B7C007901125AD38E828F83121872A8
:105A90007C007903125AD3125AC512187212116679
:105AA000800C7A017B00900748E0F91212FEAA08E8
:105AB000AB09800E54046006EE6404FA80047A0098
:105AC0007B00024FCE900762E0F8A3125AEAF583FA
:105AD0008882229007FC125E5BE0FAA3E0FB2212B0
:105AE0005AEAF9E8FEE9FFEE4F22125AF2E0F8A373
:105AF000E022E0F5838882A3A3227F02021946C038
:105B000082C083900748E0F98A828B83A3125B1BD3
:105B10001208B4803B850882850983E0FAA3E0FB84
:105B200022C082C08374FF12180412112AE9C394A0
:105B300002851882851983400474028002740AF079
